:100000000C9430020C944D020C944D020C94431A43
:100010000C944D020C944D020C944D020C944D0224
:100020000C944D020C944D020C948E210C94602281
:100030000C94271C0C944D020C944D020C944D0210
:100040000C944D020C944D020C944D020C944D02F4
:100050000C944D020C94CC1C0C944D020C944D024B
:100060000C944D020C944D020C944D020C944D02D4
:100070000C944D020C944D020C944D020C944D02C4
:100080000C944D020C944D020C944D020C944D02B4
:100090000C944D020C944D020C944D020C944D02A4
:1000A0000C944D020C944D020C944D028F048F045D
:1000B000BB04BB04F805F805F805F8051C05840524
:1000C00095059505601463149A14AD14B514C01405
:1000D000C314C314C3140B150B15C814CB14D014BC
:1000E000DD14EA14ED14F114FE148415F6158C15C4
:1000F00056155A1590155D1593159E156815EC1536
:100100006C15A2157015A615D0157415AA15DA155B
:100110007A15B015BA156115971564159A157F15DE
:10012000B515C615E615E81552158815FF153219CF
:10013000381926192C193E1944194A19C822EF22D8
:10014000E723EF22E7233B235E23E723B523C423E2
:100150002B0014001A00080015001700E00004002E
:100160001600070009000A00E3001D001B0006003E
:100170001900050000000000E100910021522C0050
:100180001C0018000C00120013002A000B000D00C8
:100190000E000F003300340011001000360037004D
:1001A0003800E5002A0028429000E6000000000028
:1001B00001001E001F00200021002200010091000C
:1001C000500052004F004B00010090004A005100C7
:1001D0004D004E0000000000010001000100010080
:1001E0002300240025002600270029002D002E00D2
:1001F0002F003000310035002D022E022F02300278
:10020000310235024C0023520100010000000000C1
:1002100001001E021F0220022102220201009100A1
:10022000500052004F004B0001000100010001008E
:100230000100010000000000010001002352010044
:10024000230224022502260227022A002D002E0066
:100250002F003000310035002D022E022F02300217
:100260003102350201000100010001000000000020
:1002700001003A003B003C003D003E00010001004F
:100280000100010001000100010001000100010066
:100290000100010000000000010001000100010058
:1002A0003F004000410042004300440001000100C3
:1002B00001000100010045000100010001000100F2
:1002C0000100010001000100010001000000000028
:1002D00000000000000000002A2B280000000000A1
:1002E00000000000000000000000002900000000E5
:1002F0002C1E3420212224342627252E362D373853
:10030000271E1F202122232425263333362E37385B
:100310001F0405060708090A0B0C0D0E0F10111219
:10032000131415161718191A1B1C1D2F3130232DE5
:10033000350405060708090A0B0C0D0E0F101112E3
:10034000131415161718191A1B1C1D2F3130354C94
:10035000000000000000000000000000000000009D
:10036000000000000000000000000000000000008D
:10037000000000007E0F00D4FFFFFFC700000078E0
:1003800012034D00610067006700690065003400DA
:10039000340000001003540061006D006100720021
:1003A0006F00680000000403090409024200020112
:1003B00000A0FA0904000001030101000921110154
:1003C0000001224000070581030800010904010023
:1003D000020300000009211101000122220007058B
:1003E000820320000107050303200001120100021F
:1003F0000000000834120200000101020001066042
:10040000FF0961A1010962150026FF00952075080A
:1004100081020963150026FF00952075089102C02E
:1004200005010906A101050719E029E715002501C5
:10043000950875018102950175088101050719006C
:1004400029FF150026FF009506750881000508198B
:10045000012905950575019102950175039101C06A
:1004600011241FBECFEFDAE0DEBFCDBF11E0A0E068
:10047000B1E0EAEAF9E402C005900D92A433B107B5
:10048000D9F722E0A4E3B1E001C01D92A631B20782
:10049000E1F70E94B4130C94D3240C94000084E080
:1004A00008958430B0F46830A0F4463090F490E3BE
:1004B000899FF001112486E0689FE00DF11D112451
:1004C000E40FF11DEE0FFF1FE05BFE4F859194914D
:1004D000089581E090E0089581E0089581E0089515
:1004E0000E946E0208950E94700208950E946E029A
:1004F000089508950E9479020895A6E0B0E0E3E827
:10050000F2E00C94432449835A839E8330913B014B
:1005100089819A81311115C03E81332359F02223FC
:1005200049F00E948A07182F682F89819A810E94BA
:10053000660703C00E947807182F69817A81812F8E
:1005400004C00E948A0769817A810E948C0E2696D7
:10055000E3E00C945F24FC01262F408151816281ED
:100560007381848195810E947D020895CF93DF93EA
:10057000EC0161E00E94AB02BE010E947302DF91B8
:10058000CF910895CF93DF93EC0160E00E94AB021E
:10059000BE010E947A02DF91CF91089508950E94D2
:1005A00061060E94CE022FEF84E39CE02150804040
:1005B0009040E1F700C0000008950E94CF020E9421
:1005C000F21C08950E94CF020E94031D08950F930C
:1005D0001F93CF93DF938C0161E00E94AB02EC018B
:1005E000B8010E942D14882309F450C0B801CE012F
:1005F0000E947602882309F449C0B801CE010E9406
:100600001A19882309F442C0B801CE010E942E15A0
:100610008823E1F1B801CE010E9480188823B1F14E
:10062000B801CE010E945D19882381F1F80185810E
:10063000882341F1C3308CE7D807D1F040F4C115CD
:10064000FCE7DF0791F0C130DC47A1F01BC0CB35E0
:10065000ECE7DE07A9F0CC35FCE7DF0771F0CA351F
:10066000DC4781F40E94FD0B0DC00E94DD020EC02C
:100670000E94050C0E94E20209C00E94F30B02C016
:100680000E94010CC8010E946C0201C080E0DF9151
:10069000CF911F910F9108950E94001C0E94730337
:1006A00008950E9477030E94091C0895089581E02F
:1006B00008950895CF93DF93D82F0E945703C82F32
:1006C000882319F08D2F0E9459038C2FDF91CF9131
:1006D00008950895CF93C82F0E9456038C2F0E942F
:1006E0005A03CF91089580E00E946A0308950E9402
:1006F0006E1B0E946A030895CF930E946E1BC82F41
:1007000080913601C81779F0C09336010E94951C7C
:1007100060933701709338018093390190933A01C7
:100720008C2F0E946A03CF910895ADE0B0E0EBE911
:10073000F3E00C944424488759876A877B878C8729
:100740009D8791110E94270BCE01019627E0FC01A5
:1007500011922A95E9F726E0FE013896DC01019016
:100760000D922A95E1F72D8121110AC029813A8144
:100770004B815C816D817E818F810E94710A04C0F2
:100780000E94B6028111F2CF2D96E2E00C94602413
:10079000FC012481213021F4808191810E94B707DE
:1007A0000895CF93882369F1C82F8CEF8C0F813A7D
:1007B000D0F46C2F80910001909101010E94991B4F
:1007C000882349F06C2F80910001909101010E94D3
:1007D000D21B0E94530B6C2F80910001909101015C
:1007E0000E94CF1B0CC080E28C0F883050F4C77081
:1007F00081E001C0880FCA95EAF70E940A0B0E94A7
:10080000530BCF9108958823D1F0682F8CEF860F7A
:10081000813A38F480910001909101010E94D21B2D
:100820000CC080E2860F883050F4677081E001C010
:10083000880F6A95EAF70E94100B0E94530B0895E7
:100840001F93CF93DF93182FEB010E94D1032097C2
:1008500041F08FE99FE00197F1F700C00000219778
:10086000F6CF812F0E940304DF91CF911F9108954D
:10087000893319F060E070E002C060E570E00E942A
:1008800020040895882321F00E940A0B0E94530B34
:100890000895882321F00E94100B0E94530B0895A5
:1008A000A0E0B0E0E6E5F4E00C943E247C01D62F15
:1008B000C72FFC011581068102950F700E94000B65
:1008C0008823E9F01123D9F08C2F807F803451F0F8
:1008D00080E28D0F883098F0011104C08C2F807E4B
:1008E000803269F08091F20182FF09C082E00E94AB
:1008F000C70B0E94000B91E0D82ED92601C0D12C45
:10090000CC2EC2948FE0C8228C2D90E08C309105C3
:1009100008F06EC1FC01EA5AFF4F0C9427248C2F7B
:10092000807FCF70882311F0C295C07F112399F08A
:10093000CC2309F449C180E28D0F883010F0D11129
:1009400004C08C2F0E940A0B03C08C2F0E941A0B2C
:100950000E94530B39C18D2F0E940304CC2309F44C
:1009600047C180E28D0F883038F1DD2329F18C2FCB
:100970000E94200B24C08C2F807FCF70803211F01A
:10098000C295C07FDD2319F0D13099F13CC0809130
:10099000F20182FD17C0112349F0CC2329F08C2FDE
:1009A0000E940A0B0E94530B80E00FC180E00E945E
:1009B0000304CC2309F41CC18C2F0E94100B0E944D
:1009C000530B16C1112349F0002309F1013009F03E
:1009D0000FC18C2F0E94310B0BC1011109C18C2F4B
:1009E0000E9449048C2F0E943D0B8C2F0E949A0B71
:1009F000FFC0112321F0063008F0FAC008C005300E
:100A000008F0F6C015C0112331F00111DDC08C2FA4
:100A10000E944204EDC0002359F0D93309F0E5C02B
:100A2000FFEF27EE83E0F15020408040E1F7DBC08C
:100A30008C2F0E944904DCC08C2F837079F5111132
:100A4000DBC04D2F429546954770440F440F2D2F24
:100A50002F70042E01C0220F0A94EAF7D4FF08C0B9
:100A60008FE090E001C0880F4A95EAF7809501C0B9
:100A700080E0C695C695C370822BC23049F058F409
:100A8000C13019F00E94B806B7C00E94B206B4C0C7
:100A90000E94BE06B1C00E94AF06AEC0112319F07D
:100AA0008C2F817001C08695882309F4A5C04D2F35
:100AB000429546954770440F440F2D2F2F70042EFA
:100AC00001C0220F0A94EAF7D4FF08C08FE090E03B
:100AD00001C0880F4A95EAF7809501C080E0C6956D
:100AE000C695C370822BC23049F058F4C13019F05A
:100AF0000E94040781C00E94FE067EC00E940A0771
:100B00007BC00E94C70678C0CF70112339F08C2FAC
:100B10000E94D9068D2F0E9442046EC08D2F0E9424
:100B200049048C2F0E94E50667C0D23F21F128F4CA
:100B3000D03F41F0D13FC1F043C0D33F19F1D43F82
:100B400079F03EC0112341F0053008F051C08C2FE0
:100B50008F710E94F2064CC0063008F049C0F7CFF2
:100B60008091F20182FD18C0112339F08C2F8F7112
:100B70000E94D9063DC01123C9F38C2F8F710E94AA
:100B8000E50636C0112329F08C2F8F710E94D00604
:100B90002FC00E94CC062CC0112349F0CF718C2F9E
:100BA0000E94D90663E08C2F0E94A90B21C081E02E
:100BB0000E94C70B0230E0F082E00E94C70B18C011
:100BC000112331F0002391F28D2F0E94D10310C028
:100BD000002399F2D93349F49FEFE7EEF3E0915007
:100BE000E040F040E1F700C000008D2F0E940304B8
:100BF00088EF8C0D843020F40E946E1B0E946A03E3
:100C0000DD2089F00E94FC0A80FD0DC0F7011582ED
:100C10000E94F60A0E94D906C7010E9430060E946F
:100C2000F60A0E94E506CDB7DEB7E8E00C945A2438
:100C30000F931F93CF93DF93EC01688179818D81AE
:100C40000E94C2078C010E9410070E94A206B801F0
:100C5000CE010E945004DF91CF911F910F91089512
:100C6000CF93DF93FC0124812223D1F0EC010E9479
:100C7000E70281110FC00E94000B882389F08D814B
:100C8000882371F08091F20182FF0AC082E00E9405
:100C9000C70B06C0CE010E941806CE010E94C202F8
:100CA000DF91CF9108950E94270B0E94530B089566
:100CB00080910001909101010E94D51B0E94530672
:100CC00008950E94170B0E945806089592959F70F0
:100CD000963079F010F4925001C09A50923068F436
:100CE000803F69F018F4883E40F409C0843F29F43D
:100CF00006C0883E20F0813F11F080E0089581E039
:100D00000895FC012481222339F0808191810E9481
:100D1000B7070E946606089580E00895A6E0B0E057
:100D2000E4E9F6E00C9444242696E2E00C94602476
:100D3000A7E0B0E0EEE9F6E00C9444242796E2E068
:100D40000C946024089508950E94A30608950E94BB
:100D5000A40608950E94A70680934F0108950E945B
:100D6000AA06089590914F01892B0E94AA06089522
:100D700090914F0189230E94AA06089590914F01F6
:100D800089270E94AA0608950E94A30608950E943A
:100D9000C40680934E01089580E00E94C70608951E
:100DA00091E001C0990F8A95EAF7892F0E94C70642
:100DB000089521E030E001C0220F8A95EAF7809182
:100DC0004E01822B0E94C706089521E030E001C049
:100DD000220F8A95EAF7209580914E0182230E9486
:100DE000C706089521E030E001C0220F8A95EAF796
:100DF00080914E0182270E94C706089590914E016E
:100E0000892B0E94C706089590914E0189230E9464
:100E1000C706089590914E0189270E94C70608953C
:100E20000895962F9770A1E001C0AA0F9A95EAF74E
:100E300093E0769567959A95E1F7FB01EE0FFF1F1A
:100E40006E0F7F1FFA01E60FF71F40E050E0682F9A
:100E500070E090819B01042E02C0369527950A947C
:100E6000E2F72170219529272A23292721934F5F13
:100E70005F4F4330510569F708959B01782F7770D4
:100E800043E0969587954A95E1F7FC01EE0FFF1F29
:100E90008E0F9F1FF901E80FF91F40E050E080E03E
:100EA000219130E0072E02C0369527950A94E2F78B
:100EB00021703327042E01C0220F0A94EAF7822BF7
:100EC0004F5F5F4F4330510559F70895282F9830F1
:100ED00070F4863060F4862F622F70E026E0929FD7
:100EE000600D711D11244CE351E00E94110708951B
:100EF000983070F4863060F4292F90E06CE371E054
:100F000036E0239F800D911D11240E943D07089516
:100F100080E00895CF92DF92FF920F931F93CF93BB
:100F2000DF936C0100914E0180914F01082BC3E0CB
:100F3000D0E010E0C8010C2E02C0959587950A9468
:100F4000E2F780FD04C02197A8F7F12C07C0FC2E22
:100F5000B6018C2F0E94980E0197A9F38F2DDF9177
:100F6000CF911F910F91FF90DF90CF900895CF9375
:100F7000DF93EC010E948A07BE010E94980EDF9168
:100F8000CF9108951F93CF93DF93EB0190913B0195
:100F9000992321F0CB010E94B70713C0882349F0A1
:100FA000CB010E948A07182F682FCE010E94660786
:100FB00004C0CB010E947807182FBE01812F0E9428
:100FC000980EDF91CF911F910895E1E0F0E0DF01ED
:100FD00002C0AA0FBB1F6A95E2F7BD01DF0102C084
:100FE000AA0FBB1F4A95E2F7AD01462B01C0EE0FD9
:100FF0002A95EAF7942F9823491302C08E2B08955F
:10100000E0958E230895242F462F682F80914E015E
:101010000E94E5070E94C70608951F93CF93DF93B0
:10102000C091500117E080915101C817A1F0D0E0A4
:101030001C9FF0011D9FF00D1124EE5AFE4F2081E0
:101040003181428153816481758186810E94980635
:101050002196C770E8CFDF91CF911F91089520911D
:101060008A0130918B0140918C0150918D016091EA
:101070008E0170918F01809190010E9498060895D1
:10108000CF93DF938091900182958F7009F04EC0CD
:1010900080918F01882309F449C0809150014091CB
:1010A000510150918B0160918A01C0918C01D091C6
:1010B0008D0177E08417D1F190E0789FF001799F5E
:1010C000F00D1124DF01AE5ABE4F14962C911497E7
:1010D000222349F111962C911197251324C02C91AC
:1010E000261321C015962C91159721111CC012961C
:1010F0002D913C9113972C1B3D0B283C310598F406
:10110000809190018F70806180939001E85AFE4F2A
:1011100080818F70806180838AE891E00E94300630
:101120000E940D0803C001968770C4CFDF91CF9154
:101130000895209150019091510157E02917A9F08D
:1011400030E0529FF001539FF00D1124EE5AFE4FF4
:101150007181761306C07081781303C07581741392
:1011600006C02F5F3F4F2770E9CF80E0089581E0F0
:101170000895A4E1B0E0EFEBF8E00C943A248C0180
:1011800086E0F801DE011F9601900D928A95E1F745
:10119000D80114968C9114971596EC909AE8A92E84
:1011A00091E0B92E90918E01911118C0882309F415
:1011B00091C1EE20D9F1C8010E948106F82E882342
:1011C000A9F187E0F801D50101900D928A95E1F728
:1011D000C5010E94C8030E94400877C1F801C08081
:1011E000D18082809380F0908F0120918C0130918A
:1011F0008D01FF2009F405C1A401421B530B483C9B
:10120000510508F0ABC0882309F466C180919001B4
:10121000282F207F90918B01222361F09D1509F4E6
:101220006BC0C8010E94810681116FC0C8010E9475
:10123000300650C19D1116C090918A019C1112C0B8
:10124000E11010C08F708061809390010E942F0880
:101250008AE891E00E94300680919001D8011696AC
:101260008C9336C1E1103AC040E06D2D8C2D0E9468
:10127000990840E06D2D8C2D0E949908E82E81116F
:1012800027C1CF86D88A8F8598890E94B707292FD2
:1012900022952F70243020F49F70223028F009C04E
:1012A0002A50223080F014C0992349F0811107C0E0
:1012B00013C0992321F0F8019681907F69F0805E38
:1012C000883030F409C0803F38F0815F833020F0EF
:1012D000C8010E943006EF2CFE2CFEC080919001C8
:1012E0008160809390018AE891E00E943006EAE8EC
:1012F000F1E087E0DF0145C090918A019C1191CF18
:10130000E1108FCFF8018683B0C0EE2009F48ECFB4
:1013100020919001822F82958F7090E002978CF03F
:1013200080918A0190918B01998788879B868A8614
:1013300080918E018C871D862E87CE0108960E9493
:10134000300687E0F801AAE8B1E001900D928A9595
:10135000E1F70E9440080E942F08BCC090919001C4
:10136000292F207FA1F4682D9A8A898AA6017A897B
:101370009E2D0E948E068AE891E00E94300687E04A
:10138000D5011D928A95E9F70E942F08A1C08823F4
:1013900009F4A2C080918B018D1111C080918A0146
:1013A0008C110DC0E1100BC0F8019683C8010E949A
:1013B000300687E0D5011D928A95E9F78DC0C801F6
:1013C0000E948106882309F431CFEE2009F42ECF44
:1013D00020919001822F82958F7090E002970CF4FB
:1013E000B0CF80918A0190918B019A8389839C82EE
:1013F0008B8280918E018D831E822F83CE01019678
:101400009ECFF401E21BF30BE83CF10508F050C05D
:10141000882309F45FC0FE2CEE2009F407CF8091E9
:101420008B018D1137C080918A018C1133C090914E
:10143000900190FD26C0892F82958F70282F30E073
:1014400021153105F1F0D80116969C9316972F308F
:10145000310559F08F5F982F9295907F16968C9159
:1014600016978F70892B16968C93C8010E943006B0
:1014700087E0F801AAE8B1E001900D928A95E1F7C2
:1014800024C087E0F801AAE8B1E001900D928A95A6
:10149000E1F722C0C8010E948106811152CF8091DC
:1014A0009001816080939001C8010E94300614C0B1
:1014B000682D9A8A898AA6017A899E2D0E948E06B5
:1014C00087E0F50111928A95E9F70E942F0804C080
:1014D000F12C02C0FF24F3948F2D6496ECE00C9461
:1014E0005624AEE0B0E0E7E7FAE00C944324288706
:1014F00039874A875B876C877D878E87CE01089600
:101500000E94B908882361F06C856623A9F12885BB
:1015100039854A855B857D858E850E9498062CC01D
:1015200087E0FE013896DE01119601900D928A95B2
:10153000E1F76C85662301F12091510130E0C9018A
:101540000196877099274091500150E084179507C4
:10155000E1F16D8397E0929FD001939FB00D11242C
:10156000AE5ABE4FFE01319601900D929A95E1F769
:10157000809351010E940D0817E0809150019091D5
:101580005101891779F1189FC00111248E5A9E4F7D
:101590000E94B908882331F1E09150011E9FF001AB
:1015A0001124EE5AFE4F20813181428153816481A2
:1015B000758186810E9498068091500190E0019685
:1015C0008770992780935001D8CF0E9461061092AE
:1015D000510110925001EAE8F1E087E0DF011D922D
:1015E0008A95E9F72E96E3E00C945F2480919901A7
:1015F00086958695869508958091990187700895BE
:1016000090919901977081E009F480E008958091AC
:10161000A50108959091A501892B8093A5010895B6
:1016200080959091A50189238093A501089510923A
:10163000A50108959091A401892B8093A401089598
:1016400080959091A40189238093A401089510921C
:10165000A401089508950E942A0B08950E942B0B5F
:10166000089590919B01292F2823821729F0982B08
:1016700090939B010E942E0B089590919B01292F1E
:10168000282331F08095892380939B010E942E0BA3
:10169000089580919B01882329F010929B0180E09E
:1016A0000E942E0B0895CF93DF93E0910001F091FB
:1016B00001018091A5018083E0910001F091010179
:1016C00090818091A401892B808380919B01882344
:1016D00081F0E0910001F09101019081892B8083DC
:1016E00080910001909101010E948D1B81110E9447
:1016F000490BC0910001D091010148E050E061E93F
:1017000071E0CE010E946B24892B59F088E0FE0124
:10171000A1E9B1E001900D928A95E1F7CE010E9416
:10172000821BDF91CF9108950E942A0B08950E9499
:10173000940B089590919A01292F282331F08095D8
:10174000892380939A010E94970B08950E942A0B87
:1017500008959091F20192FF11C098E0899F900145
:101760001124262B209399010E94D906809199017A
:101770008695869586950E94A60B08950E94D906A7
:1017800008951092990180E00E94A60B089590910F
:1017900099018095892380939901282F277069F4F6
:1017A000981759F09091F20192FF07C0869586959F
:1017B00086950E94E5060E94C10B08959091F20162
:1017C00092FB222720F9281769F080FB92F9909369
:1017D000F2018091F1019091F2010E94270C82E0C8
:1017E0000E94C70B08958091F20182FB882780F93F
:1017F00091E089270E94DE0B089581E00E94DE0BB4
:10180000089580E00E94DE0B08956FEF7FEF80E087
:1018100090E00E94BD24089580E090E00E94892419
:10182000863E9E4F19F40E94C113089580E00895EA
:1018300082E090E00E948124089583E090E00E947D
:101840008124089584E090E00E9489240895BC01D9
:1018500084E090E00E94BD240895AB01BC018FE0BC
:1018600090E00E94B1240895AB01BC0183E190E0B7
:101870000E94B124089560E070E0CB010E94340C16
:10188000089560E070E0CB010E942D0C0E943B0C9B
:101890000895A8E0B0E0EFE4FCE00C94442466EE88
:1018A0007EEF80E090E00E94BD2460E082E090E066
:1018B0000E949F2460E083E090E00E949F241092A9
:1018C0004F0160E074E184E090E00E94BD2460E09C
:1018D00086E090E00E949F246FEF87E090E00E94F6
:1018E0009F2440E050E0BA0188E090E00E94B124DB
:1018F00060E084E290E00E949F2460E087E190E055
:101900000E949F2460E08CE090E00E949F2460E0B1
:101910008DE090E00E949F2419821A821B821C8213
:101920001D821E821F82188648E050E068E170E048
:10193000CE0101960E948F2440E050E0BA0180E27F
:1019400090E00E94B12480E00E94DA130E940F14FC
:101950000E94410C2896E2E00C9460240E94490CFD
:101960000895682F8EE090E00E949F240895A6E0DD
:10197000B0E0EDEBFCE00C9442240E94891C8C0149
:101980008091A6019091A7010817190781F019828B
:101990001A820E94891C682F49815A81792F80E020
:1019A00090E00E9495031093A7010093A60126964C
:1019B000E4E00C945E240E94A20F6093B401709343
:1019C000B5018093B6019093B7016093B001709315
:1019D000B1018093B2019093B301089581E008951D
:1019E0000E94A311089508950E94F30C08950E9487
:1019F000F30C08950E94F70C08950E94F30C0895CB
:101A00000E94FD0C08950E94F30C08958CEB9FE05A
:101A10000E94641B0E94030D0E94000D08950E9405
:101A2000F40C0E94F30C08950E94DB0F0E946903DE
:101A300008950E94801C0E947C0F0E941F140E9427
:101A4000BE110E9406110E94140D0E9416150E94DC
:101A5000C8110E94FA0C0895A6E0B0E0E2E3FDE0B0
:101A60000C943B240E94EE0C811103C00E94B70C21
:101A700053C00E942B1188EAE82E81E0F82E6701FE
:101A800000E0F60111916F01802F0E94F60F81276F
:101A90000F5F083019F08823A1F302C0882331F3C7
:101AA0008091B80181FD0E94FC0F0E94F00CA82ECD
:101AB00010E099249394812F0E94F60FB82EF7011D
:101AC000C080C82609F100E0DD24D3948C2D8D213F
:101AD000A9F0AA2099F009831A830E94891C9C838B
:101AE0008B839D8291E08B2D8D2109F490E04981BB
:101AF0005A816B817C818D810E9495030F5FDD0C83
:101B0000063021F7F701B0821F5FFFEFEF1AFF0ADF
:101B1000183089F60E94DB0C0E94A3110E947C03FE
:101B20002696EBE00C9457241F93CF93DF930E94EB
:101B30009D0EEC01C11582E5D807C8F5C11590E5E9
:101B4000D90708F0BBC0C83ED105C0F4C03ED105DE
:101B500008F0DDC0C53AD10550F4C430D10508F015
:101B6000D6C0219709F0D0C081E090E0D1C0CD3C33
:101B7000D10508F4C9C0CE019065CAC0C11580E482
:101B8000D80708F05AC0C11590E2D90708F0AFC0D5
:101B9000C11581E0D80708F4B7C08D2F0E94390F16
:101BA000182FCE0199270E949D0E1F71ABC0C0381F
:101BB00092E5D90720F5C03682E5D80708F061C064
:101BC000C03492E5D90708F04AC0C03282E5D80790
:101BD000F0F54C2F4695469590E2499FA0011124BF
:101BE000C37021E030E0C90102C0880F991FCA9577
:101BF000E2F7EA01C82BD92BCE019D6889C0C03C11
:101C000092E5D90768F48C2F8F71C03AD24508F05D
:101C10004CC090E0D82FCC27CE01846F906A78C05A
:101C2000C03E82E5D80708F06FC0CF71DD27DC2FFA
:101C3000CC27CE01806F906A6BC0CE0199270E949D
:101C40009D0ECC27DF70D06A8C2B9D2B61C0CF718D
:101C5000D0E0DC2FCC27CE01816F906A59C08C2F49
:101C60008F718695869590E2899F90011124C370AB
:101C700081E090E002C0880F991FCA95E2F79C6846
:101C800011C08C2F8F718695869590E2899F900167
:101C90001124C37081E090E002C0880F991FCA959B
:101CA000E2F79A68822B932B33C00E94390F8F7111
:101CB00090E0D82FCC27CE0190622AC08C2F8F7154
:101CC0000E94390F95E0D695C7959A95E1F7CF70A8
:101CD000D0E0DC2FCC27282F30E084FF05C084E043
:101CE000220F331F8A95E1F7D069CE01DBCF8D2F0C
:101CF0008F710E94390F182FCE0199270E949D0ED7
:101D00001F719062912B04C080E090E001C0CE0171
:101D1000DF91CF911F910895783038F4663028F420
:101D2000462F672F0E949817089580E090E008954D
:101D30000E948C0E0E94940D08958238910569F1DD
:101D4000B0F48133910509F475C048F489329105E6
:101D500009F467C08A32910509F471C0089585338A
:101D6000910509F459C089339105B9F00895833E6E
:101D7000910589F138F4803E9105D1F0823E9105BC
:101D800029F10895863E9105C9F1873E9105D9F163
:101D9000843E910509F06CC027C02091F10120FD1F
:101DA00057C021FD55C02091F20123FD5BC008956D
:101DB0008091F10180FD48C08091F20180FF48C010
:101DC0008091F10184FD46C083EE51C08091F10104
:101DD00082FF3CC0F5CF8091F10182FD37C0809138
:101DE000F20180FD35C0ECCF8091F20181FF36C059
:101DF0008091F10184FD2EC087EE39C08091F10100
:101E000083FF2AC0F5CF8091F10183FD25C0809129
:101E1000F20181FD23C0ECCF8091F10185FD22C04C
:101E20001FC08091F10185FD1BC08091F20183FFED
:101E300019C00AC08091F10186FD16C017C08091BB
:101E4000F10186FD13C010C089E311C082EE0FC0FE
:101E500080EE0DC080E00BC086EE09C084EE07C0A6
:101E600085E305C089E203C08AE201C081E390E016
:101E700008959091F10192FF0DC0282F287128300C
:101E800019F4877F846006C0282F2471243011F450
:101E90008B7F886093FF0DC0282F2871283119F49B
:101EA000877E846106C0282F2471243111F48B7E33
:101EB00088612091F20120FF0DC0382F3871383031
:101EC00019F4877F816006C0382F3171313011F4E9
:101ED0008E7F886021FF0DC0282F2871283119F4CA
:101EE000877E816106C0282F2171213111F48E7EF9
:101EF000886194FD877E08951092ED011092EE01A5
:101F00001092EF011092F0010895CF92DF92EF92BC
:101F1000FF926B017C010E94A31181110EC00E94EF
:101F2000951CC61AD70AE80AF90AC092ED01D092A8
:101F3000EE01E092EF01F092F001FF90EF90DF9060
:101F4000CF9008950F931F930E94A311882319F037
:101F50000E94951C0EC00E94951C0091ED011091ED
:101F6000EE012091EF013091F001600F711F821F8F
:101F7000931F1F910F91089580E008950E94050C12
:101F800008950E942B112FEF86E791E021508040A9
:101F90009040E1F700C000000E942B1180E00E94F9
:101FA000F60F80FF04C00E94BE0F0E94F21C08952D
:101FB0000E94C10F08950E940C0C811102C00E9462
:101FC000AE0C0E94180C8093B8010E94220C9093D2
:101FD000F2018093F1010E94D80F0E941D0C0E9413
:101FE000AF0680914E010E94C4060895E82FF0E0EC
:101FF000E450FE4F80810895089580EA8A95F1F7B4
:10200000089500C008950E94FD0F089508950E944C
:10201000061008950E94071008950E940610089562
:102020000E940D1008950E9406100895A4E0B0E0EB
:10203000ECE1F0E10C9442240E94A31160910402AF
:102040008823E9F119821A821B821C82862F90E074
:102050008E010F5F1F4FB80184509E4F0E94D61112
:10206000882389F08091F30190E044E050E0B801CA
:1020700084509E4F0E946B2421E02093B901892B4C
:1020800069F410E019C08091B9018823D1F384E08C
:10209000F80111928A95E9F71092B901E091F301E4
:1020A000F0E0E450FE4F89819A81AB81BC8180834E
:1020B0009183A283B38311E00E940A100DC070E0E7
:1020C00064507E4F8091F30190E084509E4F0E94B7
:1020D0005F120E94131010E0812F2496E4E00C940C
:1020E0005E24F894E82FE295EF70F0E031A1282FFC
:1020F0002F7081E090E001C0880F2A95EAF7982FB1
:102100009095932391A392A1892B82A3789408950B
:102110000F931F93CF93DF93CDE2D1E089918F3F4F
:1021200011F00E94711081E0C133D807B9F7C7E2FE
:10213000D1E00DE211E089918F3F11F00E94711002
:102140000C171D07C1F7DF91CF911F910F910895D3
:10215000A0E0B0E0EEEAF0E10C943E248C01C62F42
:10216000D0E0CE01835D9E4F7C01FC0190819F3FBA
:1021700009F447C0D62EF894E92FE295EF70F0E00D
:1021800081A19F7021E030E001C0220F9A95EAF70B
:10219000822B81A382A12095282322A378940E94D8
:1021A0000110E7E2F1E04DE251E031E0C12C219174
:1021B0002F3F89F0A22FA295AF70B0E090968C913E
:1021C00090E02F7002C0959587952A95E2F780FDE3
:1021D00002C0832F01C080E0C82A330F4E175F076B
:1021E00031F7F70180818F3F11F00E94711061E09B
:1021F000C11001C060E08D2D0E940310C00FD11FDF
:10220000C882CDB7DEB7E8E00C945A248091020171
:1022100080910201811102C094E001C090E090938E
:10222000040284E0891B8093F3010E94881088E0F7
:10223000ECEFF1E0DF01982F1D929A95E9F7E4EFBA
:10224000F1E0DF011D928A95E9F784E00E946911AF
:102250000E9410100895A8E0B0E0E1E3F1E10C94D1
:1022600041248E010F5F1F4F88E0F80111928A957B
:10227000E9F7F12C6F2DC8010E94A810F394F4E047
:10228000FF12F8CF48E050E0B80184EF91E00E94DF
:102290006B2421E0009709F420E0892B41F088E0CD
:1022A000F801A4EFB1E001900D928A95E1F76091F9
:1022B000040270E064507E4F44E084EF91E00E949D
:1022C0006A11182F0E941610812B2896E5E00C94B5
:1022D0005D240895EF92FF920F931F93CF93DF93A6
:1022E0007C018B01C42F222349F081E08093BC0143
:1022F0000E94891C9093BB018093BA018091BC011C
:10230000811102C080E01AC08091BA019091BB0196
:102310000E94A11C0597B0F3D0E0AE01B701C8013F
:102320000E946B24892B39F0AE01B701C8010E94CD
:10233000782481E001C080E01092BC01CDB7DEB707
:10234000E6E00C945C248091BF0181110DC00E94D5
:102350001A24811102C082E001C081E08093BF0194
:10236000823011F40E94152481E09091BF019130D8
:1023700009F080E008950E94A31108950E94BB1106
:10238000809302010E94A31181110E940E120895F0
:102390000E94A311811102C00E941112089581E0D0
:1023A0009091C0019A3008F080E008950F931F9338
:1023B000CF93DF93EC018B018091C0018A3038F418
:1023C000B801CE010E945C1281111DC00AC080912B
:1023D000BD019091BE010E94A11C843F914080F7F5
:1023E00015C08091C0018F3F19F08F5F8093C001AD
:1023F0008091C0018A3060F00E94891C9093BE01D8
:102400008093BD0103C01092C00102C080E001C0F2
:1024100081E0DF91CF911F910F9108950E94FE19E5
:1024200008950E94011A0895A0E0B0E0EAE1F2E107
:102430000C943F247901C82F880FDD0B41155105FD
:10244000A9F0FE0193E0EE0FFF1F9A95E1F7ED5F13
:10245000FE4F818192818F539E4F208130E0421741
:10246000530708F49A01A9010E947824CE010E9422
:10247000E91AD82E8823D1F001151105B9F083E0AF
:10248000CC0FDD1F8A95E1F7FE01ED5FFE4F438122
:1024900050E00417150708F4A801CD5FDE4F6C81EA
:1024A0007D816F537E4FC7010E9478248D2DCDB75B
:1024B000DEB7E7E00C945B240E94591308950E9454
:1024C00070130895A4E0B0E0E8E6F2E10C94422431
:1024D0006091D6017091D7018091D8019091D90176
:1024E0000E94B01C643671058105910528F10E9497
:1024F000A20FDC01CB010296A11DB11D89839A8335
:10250000AB83BC8300E010E020E030E044E050E02A
:10251000BE016F5F7F4F82E00E941412182F882344
:1025200061F00E94951C6093D6017093D70180934F
:10253000D8019093D90101C011E0812F2496E4E0E5
:102540000C945E24A0E0B0E0E8EAF2E10C943C24B4
:102550007C015B016A010E94CF11811103C001E07F
:1025600010E002C00AE010E0C1E0D0E0B501C70110
:10257000F6010995811115C021960C171D0794F0DD
:10258000CC9F9001CD9F300D300D112480E090E064
:1025900045E34A95F1F70000019682179307C1F7CA
:1025A000E5CF81E0CDB7DEB7EAE00C945824A5E092
:1025B000B0E0EDEDF2E10C943C245B01E0903101E0
:1025C000F090320101E010E09E012B5F3F4F40E0B0
:1025D00050E060E070E080E00E941412182F882321
:1025E00009F43EC067018FEFC81AD80A6091D20182
:1025F0007091D3018091D4019091D5010E94B01CBB
:10260000643671058105910518F104E010E09E0122
:102610002F5F3F4F40E050E060E070E081E00E94BB
:102620001412182F64E070E0C6010E94171591E0A3
:102630002D81281390E0192351F10E94951C60937D
:10264000D2017093D3018093D4019093D50111C02E
:1026500064E070E0C6010E9417159D818913D5CFF3
:10266000F70181819281A381B48189839A83AB83AD
:10267000BC83112361F089819A81AB81BC818093F5
:10268000CE019093CF01A093D001B093D10180915E
:10269000CE019091CF01A091D001B091D101F5016F
:1026A00080839183A283B383812F2596EAE00C94E3
:1026B00058240F931F93CF93DF93EC018B0147EDC9
:1026C00052E10E94A212882331F042E652E1B801A1
:1026D000CE010E94A212DF91CF911F910F91089518
:1026E0000F931F93CF93DF93C0913101D0913201AB
:1026F000CE01019624E0FB01DC0101900D922A95A8
:10270000E1F764E070E00E94171588836D817E8197
:102710008F8198850091CA011091CB012091CC0145
:102720003091CD01601771078207930751F06093D4
:10273000CA017093CB018093CC019093CD010E948C
:10274000850FDF91CF911F910F9108950E946F1E09
:102750000E94190D0E947C1E08950E94811E0E94F5
:102760002C0D0E949B1E08950E94201C0E94551E45
:102770000E94060D0E94A6130E94AD130E940F0D29
:10278000FBCF85E290E00E948124833281F486E2CF
:1027900090E00E948124863051F487E290E00E940C
:1027A000812491E0833009F090E0892F01C080E01E
:1027B00081700895CF93C82F811102C06FEF01C0BF
:1027C00063E285E290E00E949F24C11102C06FEF96
:1027D00001C066E086E290E00E949F24C11102C021
:1027E0006FEF01C063E087E290E00E949F24CF91E9
:1027F0000895089588E290E00E948124682F70E097
:1028000080E090E008950895CF93C62F0E940314AE
:102810006C2F88E290E00E949F24CF91089580E081
:102820000E94DA1360E070E0CB010E9404140E9461
:102830002B170E94ED1781E00E94DA1308950E9481
:10284000F9130E94FA130E9403140E94C11381110C
:1028500002C00E940F14089508959C01FB01858118
:10286000882351F0A90157574038510530F4C90168
:102870000E94FD1780E0089581E008952FEFFC018C
:10288000208308950E943E14089580E00895A0E0FA
:10289000B0E0EDE4F4E10C943C24EC01F62E0E944F
:1028A00045148111BEC0E8818E2F90E0FC01319764
:1028B000E331F10508F0AFC0EE59FF4F0C94272427
:1028C00019828CE06BC08981823089F030F48130CC
:1028D00009F0A1C00E94951C0CC0833079F08430AF
:1028E00009F099C01A821B821C821D8296C00E9428
:1028F000FA139A838B837C836D838FC0EA806E0189
:1029000083E0C80ED11C00E010E0AE2CB12CC50154
:10291000800F911F089708F080C08E2D800F0E94B5
:10292000F60FF60181936F010F5F1F4F0C311105F8
:1029300071F773C08981823039F0853009F06BC03E
:102940008A810E942C1469C06A817B818C819D815F
:102950000E942D240E94041460C04B816A818981E9
:102960000E94EF169C838D8358C02C813D813227B5
:10297000232732274B816A8189810E9410174DC01D
:102980000E942B174AC06F2DCE010E94421445C0F1
:102990000E94A41724C00E94A61799838A833DC071
:1029A0006B8170E089819A81AE014C5F5F4F9827FF
:1029B000892798270E94A91730C06B8170E0898110
:1029C0009A81AE014C5F5F4F9827892798270E9414
:1029D000CC1723C00E94ED1720C00E94DC1689830B
:1029E0001CC06B8170E089819A81AE014C5F5F4FA2
:1029F0009827892798270E9456170FC06B8170E08F
:102A000089819A81AE014C5F5F4F9827892798276B
:102A10000E94781702C08FEF88836F2DCE010E942D
:102A20004B1DCDB7DEB7EAE00C9458240895FC01A5
:102A3000680F791F8FEF91E3E617F70771F0219187
:102A4000822728E030E087FF03C0880F892701C074
:102A5000880F21503109B9F7EFCF0895CF93DF9355
:102A6000FC01DB0115968C91882309F4DDC09F01E0
:102A700030572332310508F0D8C0EF010E94220CF4
:102A80009093F2018093F101FE01E150F047E232B0
:102A9000F10520F4EB58FF4F0C9427248091F101AD
:102AA0008160AAC08091F2018860B2C08091F1017A
:102AB0008260A2C08091F10120C08091F101886004
:102AC0009BC08091F2011EC08091F2018260A0C083
:102AD0008091F101806190C08091F10180628CC091
:102AE0008091F101806488C00E9461068091F101AB
:102AF000806882C08091F101886084607DC080918F
:102B0000F2018260816084C08091F1018E7F74C087
:102B10008091F201877F7CC08091F1018D7F6CC034
:102B20008091F10120C08091F101877F65C0809183
:102B3000F2011EC08091F2018D7F6AC08091F10187
:102B40008F7E5AC08091F1018F7D56C08091F10136
:102B50008F7B52C00E9461068091F1018F774CC03B
:102B60008091F101877F8B7F47C08091F2018D7F3B
:102B70008E7F4EC08091F10182FB222720F991E0E7
:102B8000922790FB82F990FB83F936C08091F20185
:102B9000982F909591708E7F892B90FB81F938C08A
:102BA0008091F10186FB222720F991E0922790FB8A
:102BB00086F922C00E9461068091F10187FB2227DD
:102BC00020F991E0922790FB87F916C081E001C0BF
:102BD00080E00E94B10C1EC08091F10184FB22278D
:102BE00020F991E0922790FB84F906C08091F101D1
:102BF000982F909590FB80F98093F1010BC0809104
:102C0000F20183FB222720F991E0922790FB83F9C0
:102C10008093F2018091F1019091F2010E94270CC2
:102C20000E94610680E001C081E0DF91CF910895AC
:102C3000A0E0B0E0EEE1F6E10C943F24E82FF0E0F4
:102C4000E053FD4FD490282F26952695269530E009
:102C5000F901E059FC4F0491877010E0082E02C082
:102C6000159507950A94E2F701701127F901E05ACA
:102C7000FC4FE490F12C082E02C0F594E7940A94DE
:102C8000E2F791E0E922FF24F901E05BFC4FC491F7
:102C9000D0E002C0D595C7958A95E2F7C170DD27CF
:102CA0000115110519F081EE0E94D103E114F10420
:102CB00019F086EE0E94D1038D2D0E943804E11494
:102CC000F10419F086EE0E9403040115110519F0B4
:102CD00081EE0E940304CD2B19F08CE20E9438048F
:102CE000CDB7DEB7E7E00C945B24EF92FF920F9331
:102CF0001F93CF93DF93EC01162F0AE0888188237E
:102D000009F455C0813009F043C08981813041F414
:102D10007E0182E0E80EF11C8A810E94380409C01D
:102D2000823049F47E01E2E0EE0EF11C8A810E94BD
:102D3000D103E7012FC0833041F47E01F2E0EF0EB2
:102D4000F11C8A810E940304F4CF843011F0219693
:102D500021C02A81229680E090E030E020533109A2
:102D60002A30310558F4089FA001099F500D112405
:102D7000C901840F951F21962881EFCF009751F04C
:102D8000EFE9FFE03197F1F700C000000197F6CFBF
:102D90000E9418162196812F882309F4AFCFEFE9FE
:102DA000FFE03197F1F700C000008150F5CFCDB7BB
:102DB000DEB7E6E00C945C2484E0089550E0440F14
:102DC000551F2CE0629F400D511D11249A0160E6B1
:102DD000869F200D311D1124C901899608950F93F6
:102DE0001F93CF93DF938430A0F4683090F4463083
:102DF00080F40E94DE168C010E94812490E0D82F7E
:102E0000CC27C80101960E9481249E01282BC9016C
:102E100002C080E090E0DF91CF911F910F91089563
:102E20000F931F93CF93DF93843080F4683070F456
:102E3000463060F4E9010E94DE168C016D2F0E947D
:102E40009F246C2FC80101960E949F24DF91CF918F
:102E50001F910F9108950F931F93CF93DF93C0E0BD
:102E6000D0E010E000E00E944F0290E0C817D907C0
:102E70003CF4402F612F8C2F0E9451029C0102C014
:102E800021E030E0402F612F8C2F0E9410170F5F40
:102E9000063049F71F5F183029F72196C430D10555
:102EA00001F7DF91CF911F910F910895EF92FF925B
:102EB0000F931F93CF93DF93EA017A01E60EF71E7B
:102EC0008C01C8018996CE15DF0569F0003821E034
:102ED000120720F40E948124888301C01882219661
:102EE0000F5F1F4FEECFCDB7DEB7E6E00C945C244A
:102EF000EF92FF920F931F93CF93DF93EA017A0132
:102F0000E60EF71E8C01C8018996CE15DF0559F033
:102F1000003821E0120718F468810E949F2421964E
:102F20000F5F1F4FF0CFCDB7DEB7E6E00C945C2407
:102F3000843038F4683028F4463018F40E94EF16D4
:102F4000089580E090E0089580E1089587E592E09B
:102F50000895EF92FF920F931F93CF93DF93EA01AF
:102F60007A01E60EF71E8C01C80187559E4FCE15DB
:102F7000DF0569F0073522E0120720F40E94812462
:102F8000888301C0188221960F5F1F4FEDCFCDB708
:102F9000DEB7E6E00C945C24EF92FF920F931F9350
:102FA000CF93DF93EA017A01E60EF71E8C01C80188
:102FB00087559E4FCE15DF0559F0073522E01207E1
:102FC00018F468810E949F2421960F5F1F4FEFCF56
:102FD000CDB7DEB7E6E00C945C24CF93DF93C9EA6B
:102FE000D1E060E0CE010E949F242196C11584E0CB
:102FF000D807B9F7DF91CF910895A8E0B0E0E3E0FA
:10300000F8E10C943A24F82E8FE08F1508F474C080
:103010008FEF93E00E94812481116EC009EA11E0D4
:10302000FF2071F0011594E0190709F465C0C8018B
:103030000E948124811101C0FA940F5F1F4FF0CFCD
:10304000FE0131966F0188E011928A95E9F77801C7
:10305000FFEFEF1AFF0AC8010E94812489831A82B8
:10306000882309F449C0813009F040C0580182E04A
:10307000A80EB11CC7010E9481248A838823E1F134
:103080009FEF980F933060F4780193E0E90EF11C04
:10309000C5010E9481248B83882371F11C8226C084
:1030A000843019F54E01E3E08E0E911C02E010E031
:1030B0007501FFEFEF1AFF0AC5010E948124F40198
:1030C00081934F018823C1F08C3741F4E2E0F0E0B6
:1030D000EC0FFD1FE00FF11F108208C00F5F1F4FA4
:1030E00057010730110521F707C0750160E0C601DF
:1030F0000E9475168701ABCF2896ECE00C945624FD
:10310000CF93DF9386319C4741F5EB010E94070B7B
:10311000982F8D812091000130910101882379F051
:103120009A7A81E009F480E08093DA01911102C07B
:1031300069E201C065E3C9010E94CF1B0AC080910A
:10314000DA01811102C069E201C065E3C9010E9490
:10315000D21B0E94530B80E001C081E0DF91CF9130
:1031600008950F931F93CF93DF93C42FD22FFC01A9
:1031700085818823B1F04093DD010E94891C9093E2
:10318000DC018093DB0180E28C0F883008F04DC0B9
:10319000C77081E001C0880FCA95EAF70E94420417
:1031A00044C08091DD01481330C08091DB019091D3
:1031B000DC010E94A11C883C910538F510E21D0F2E
:1031C000CD17B9F080E28C0F883040F4C77081E0F1
:1031D00001C0880FCA95EAF70E944904183010F51B
:1031E00081E09D2F977001C0880F9A95EAF70E94A1
:1031F0004204802F0E9438041830B8F4D77081E060
:1032000001C0880FDA95EAF70AC080E28C0F883097
:1032100060F4C77081E001C0880FCA95EAF70E9488
:10322000490403C0802F0E943804DF91CF911F9181
:103230000F9108950F93FC01E851FC47E730F10529
:1032400090F5CB01E956FF4F0C94272406E221EEBE
:1032500041EE6AE17CE723C007E225EE45EE6BE133
:103260007CE71DC006E221EE40EE68E17CE717C076
:1032700007E225EE44EE69E17CE711C006E221EEAB
:1032800042EE6CE17CE70BC007E225EE46EE6DE115
:103290007CE705C008E221E045EE6EE17CE70E9494
:1032A000B11880E008C0FB018581882319F01092D5
:1032B000DD0101C081E00F9108951F93CF93DF934B
:1032C00087372CE7920721F088379C4759F031C0A7
:1032D000FB01C581CC2319F00E949F1909C00E94EF
:1032E0009F1918C0FB01C581CC2391F00E94A2193F
:1032F0000E94D9060E94A519D82F0E94A219C82F92
:103300000E949F194D2F6C2F0E940308C0E012C02D
:103310000E94A2190E94E5060E94A519182F0E947A
:10332000A219D82F0E949F19412F6D2F0E940308C8
:1033300001C0C1E08C2FDF91CF911F910895809142
:103340001D01089580911C01089580911B0108952D
:103350008EE14A9B02C08150E1F74A9BFECF08955F
:103360005A9880E28A95F1F75A9A0895FC012AE06A
:103370002A95F1F728E090E080E031E040E14A95BD
:10338000F1F7880F4A9B02C08160932700C00000BC
:1033900040E14A95F1F7215089F720E12A95F1F7AC
:1033A00029B100C0000030E13A95F1F722FB222755
:1033B00020F992272081920F90830895A1E0B0E038
:1033C000E4EEF9E10C94402419828C017C01E60EB4
:1033D000F11C0E151F0551F00E94A819CE0101968F
:1033E0000E94B619F80181938F01F3CF81E0998192
:1033F000911180E02196E6E00C945C24529A5A9A4E
:10340000089552985A9AEA9AE9E6F0E080818F7C12
:1034100080830895615091E001C0990F6A95EAF7A1
:1034200020E031E0992361F0492F482319F05A9A9E
:10343000232701C05A9840E24A95F1F79695F2CFBA
:10344000222311F05A9A01C05A9880E28A95F1F726
:103450005A980895FF920F931F93CF93DF93EC0137
:103460008C01060F111DC017D10741F0F9900E9481
:10347000B01968E08F2D0E940A1AF5CFCDB7DEB7DC
:10348000E5E00C945D241F920F920FB60F92112469
:103490000F931F932F933F934F935F936F937F935C
:1034A0008F939F93AF93BF93EF93FF93CF93DF934C
:1034B0001F92CDB7DEB719820E94A819CE010196DE
:1034C0000E94B619082F069506950695902F969599
:1034D0009570202F2570920F292F23709695969521
:1034E000920F877089135FC0898181115CC004309D
:1034F00008F059C080E18A95F1F75A9A529A82E011
:103500008A95F1F700C05A9888E0089F800111243D
:10351000D801AD5FBE4F1696ED91FC91179730978D
:10352000A9F0609131017091320114962D913C9176
:103530001597260F371F11968D919C911297680F42
:10354000791F13964C9113978C910995F801ED5FB3
:10355000FE4F6381662351F08091310190913201D9
:1035600024813581820F931F0E942A1A0E94B0196C
:1035700080E18A95F1F75A9852985A9A80E18A9593
:10358000F1F7F801ED5FFE4F6081662351F0809105
:1035900031019091320121813281820F931F0E946B
:1035A000DE190E94A8190F90DF91CF91FF91EF9142
:1035B000BF91AF919F918F917F916F915F914F914B
:1035C0003F912F911F910F910F900FBE0F901F9061
:1035D00018950F931F93CF93DF93843091050CF0D0
:1035E0006DC0EC01F894529A5A9885E08A95F1F7EB
:1035F00000009C2F969595702C2F2570920F892F87
:1036000083709695969523E0CC0FDD1F2A95E1F700
:10361000980F8E01092B0E94B01984E08A95F1F76A
:1036200000C068E0802F0E940A1A80E18A95F1F7B5
:1036300052985A9A4A9902C000C0FCCF87E090E0A5
:103640004A9B08C0019721F4529A5A9A789436C03E
:1036500000C0F6CFFE01ED5FFE4F6381662381F06F
:10366000809131019091320124813581820F931F25
:103670000E94DE19811104C0529A5A9A78941FC090
:103680000E94A81980E28A95F1F75A98529A80E12F
:103690008A95F1F7CD5FDE4F6881662351F0809106
:1036A00031019091320129813A81820F931F0E944A
:1036B0002A1A0E94B019789481E001C080E0DF915D
:1036C000CF911F910F91089590933501809334010C
:1036D00008959093E0018093DF0108950E94A31163
:1036E000811103C08091DE010895E091DF01F09126
:1036F000E001309729F00190F081E02D09950895BF
:1037000080E00895E091DF01F091E001309721F031
:103710000280F381E02D09950895FC01329697E02F
:1037200080E0915029F021912223D9F38F5FF9CFC6
:103730000895662349F0FC0132960896219162179C
:1037400029F0E817F907D1F780E0089581E008959E
:103750009C01FC0132969FEF80E04191461789F071
:103760009F3F19F4411101C0982F8F5F8630A9F750
:103770009F3F39F0F901E90FF11D97FDFA9562833A
:10378000089508959C012A5F3F4FFC014281461332
:1037900001C01282019682179307B9F708950E941B
:1037A000A81B08950E94C21B0895029626E0FC0102
:1037B00011922A95E9F7089508950E94DC1B089557
:1037C00083E08093E1010E94DD1B0895811102C016
:1037D00081E001C082E08093E1010E94DD1B089539
:1037E0000E94E61B089581E08093E1010E94DD1BA9
:1037F00008950E94F31B089508950E94FC1B0895EC
:103800000E94FD1B08950E94FC1B08950E94FC1B52
:1038100008950E94FC1B0895CF930E94061C0E94ED
:103820002B110E94031CC0E08C2F0E94F60F811107
:1038300004C0CF5FC830C1F701C081E0CF910895C7
:1038400085B7806885BF85B7806885BF08951F925A
:103850000F920FB60F9211248F939F93AF93BF9344
:103860008091E201811113C08091050290910602BE
:10387000A0910702B09108024196A11DB11D80934D
:10388000050290930602A0930702B0930802BF912D
:10389000AF919F918F910F900FBE0F901F90189531
:1038A00080910D02843031F10E944C031092E201AC
:1038B00020E488E190E00FB6F894A895809360002A
:1038C0000FBE2093600083B7817F846083BF83B77E
:1038D000816083BF7894889583B78E7F83BF0FB64E
:1038E000F894A895809160008861809360001092A0
:1038F00060000FBE08950E9461060E945103089562
:1039000082E084BD93E095BD9AEF97BD80936E00F1
:1039100008952FB7F8948091050290910602A09126
:103920000702B09108022FBF08952FB7F894609155
:1039300005027091060280910702909108022FBF44
:1039400008959C014FB7F89480910502909106026A
:10395000A0910702B09108024FBF821B930B0895FC
:10396000CF92DF92EF92FF922FB7F894C0900502AA
:10397000D0900602E0900702F09008022FBFA70146
:103980009601261B370B480B590BCA01B901FF9052
:10399000EF90DF90CF90089578941F920F920FB61A
:1039A0000F9211248F939F93AF93BF938091050241
:1039B00090910602A0910702B09108020196A11D04
:1039C000B11D8093050290930602A0930702B09365
:1039D0000802BF91AF919F918F910F900FBE0F90F2
:1039E0001F90189587E797E7909301088093000848
:1039F0009AE088E10FB6F894A895809360000FBE16
:103A000090936000FFCF9AE088E10FB6F894A895F4
:103A1000809360000FBE90936000FFCF8091EB0118
:103A20000895089508959B0190910D029430F1F44A
:103A30008F708093E9008FEF9091E800815095FDA1
:103A400006C095ED9A95F1F700008111F5CF8091B0
:103A5000E80085FF0BC0BA01C90140E050E00E94B8
:103A6000421F8091E8008E778093E8000895CF93FD
:103A7000DF93EC0148E050E0BC0181E00E94131D9F
:103A800088E0FE01A3EEB1E001900D928A95E1F786
:103A9000DF91CF910895603231F4BC0140E250E0F3
:103AA00082E00E94131D089580910C02811109C0CB
:103AB0000E9412210E946F218091E2008460809315
:103AC000E200089510920C0208950E94F91B0895D7
:103AD0006091090281E0611101C080E00E94E01B59
:103AE000089590910D0281E0943009F080E060919A
:103AF00009020E94E61B089542E061EC81E00E9409
:103B00008B2042E261EC82E00E948B2042E260EC7A
:103B100083E00E948B2090910D0281E0943009F0A7
:103B200080E0609109020E94F01B089580910F02CD
:103B3000833009F461C030F4813071F0823009F4CF
:103B40009BC008958A3009F487C08B3009F46CC09B
:103B5000893009F0A9C020C080910E02813A09F095
:103B6000A3C08091E800877F8093E80080911202D3
:103B700090911302892B21F468E083EE91E003C059
:103B800060E080E090E070E00E94CC1F8091E8004F
:103B90008B778093E800089580910E02813209F0BE
:103BA00083C08091120290911302892B09F07CC08E
:103BB0008091E800877F8093E8008091E80082FD93
:103BC00005C080910D028111F8CF6EC02091F300E5
:103BD0008091F20090E0922B029731F48091F100F5
:103BE000813011F0863021F48091F1008093EB0157
:103BF0008091E8008B7754C080910E02813A09F0E1
:103C000053C08091120290911302892B09F04CC08D
:103C10008091E800877F8093E8008091E80080FF32
:103C2000FCCF8091260137C080910E028132E1F5F0
:103C30008091120290911302892BB1F58091E800D6
:103C4000877F8093E8000E94C020809110028093BB
:103C500026010E946106089580910E02813221F5AD
:103C60008091E800877F8093E8000E94C0208091C7
:103C700011028093EC01089580910E02813AA1F423
:103C80008091E800877F8093E8008091E80080FFC2
:103C9000FCCF8091EC018093F1008091E8008E7759
:103CA0008093E8000E94C020089584B7877F84BF76
:103CB0000FB6F894A89580916000886180936000A9
:103CC000109260000FBE90E080E80FB6F8948093E9
:103CD0006100909361000FBE0E94F31B08950E9443
:103CE00012210E946F21E2EEF0E0808184608083E7
:103CF00078940E94FA2308958EE191E00E94691B56
:103D0000089580910D028530A9F480910D028530CF
:103D100079F40E94501C80910B028823B1F30E9419
:103D20000C1C882391F30E942C1F0E946106EDCF8A
:103D30000E947B1C0895A0E2B0E0E1EAFEE10C9451
:103D4000442480910D02843011F583E08093E900D2
:103D50008091E80082FF1BC08091E80085FF0AC0C7
:103D600040E050E060E270E0CE0101960E94871FC3
:103D700091E001C090E08091E8008B778093E800AB
:103D8000992329F060E2CE0101960E944714A09683
:103D9000E2E00C9460249A014091140250911502C3
:103DA0000E94D31E0895492F552743305105C9F06D
:103DB00060F44130510581F04230510509F044C0B2
:103DC00082E490E04AEA53E043C041325105E1F019
:103DD0004232510549F138C082E190E04CEE53E0A7
:103DE00037C099278130910549F028F0029761F595
:103DF000E0E8F3E005C0E6EAF3E002C0E4E9F3E05E
:103E0000849190E0AF0124C06115710541F06130EB
:103E10007105D1F489E090E045ED53E019C089E0E7
:103E200090E04CEB53E014C06115710541F0613036
:103E3000710551F482E290E04EEF53E009C080E456
:103E400090E040E254E004C080E090E040E050E0C8
:103E5000F90151834083089580E189BD82E189BDE4
:103E600009B400FEFDCF8091D8008F7D8093D800EB
:103E70008091E00082608093E0008091E00081FD0D
:103E8000FCCF0895A0E0B0E0E8E4FFE10C943E240C
:103E9000EC018B017A010E94DF20811133C0E11413
:103EA000F10439F0F70180819181081B190BC80FCB
:103EB000D91FC12CD12C0115110519F18091E800F1
:103EC00085FD16C08091E8008E778093E800E114AC
:103ED000F10449F0F70180819181C80ED91ED18289
:103EE000C08285E00FC00E94DF20882321F30AC032
:103EF00089918093F10001501109FFEFCF1ADF0A79
:103F0000DACF80E0CDB7DEB7E8E00C945A24A0E029
:103F1000B0E0EDE8FFE10C943E24EC018B017A0166
:103F20000E94DF20811133C0E114F10439F0F70160
:103F300080819181081B190BC80FD91FC12CD12C6E
:103F40000115110519F18091E80085FD16C08091D9
:103F5000E8008B778093E800E114F10449F0F70161
:103F600080819181C80ED91ED182C08285E00FC0A8
:103F70000E94DF20882321F30AC08091F1008993F9
:103F800001501109FFEFCF1ADF0ADACF80E0CDB779
:103F9000DEB7E8E00C945A24209114023091150207
:103FA0002617370748F06115710539F42091E800AC
:103FB0002E772093E80001C0B901FC0120E06115D3
:103FC000710579F180910D028823F1F18530F1F1CD
:103FD0008091E80083FD3CC08091E80082FD2EC006
:103FE0008091E80080FFEBCF2091F3008091F200F8
:103FF00090E0922B6115710551F08830910538F4ED
:1040000021912093F100615071090196F3CF21E0D5
:10401000089709F020E08091E8008E778093E8000F
:10402000CECF2111CFCF0AC080910D02882361F03D
:10403000853061F08091E80083FD0AC08091E8003E
:1040400082FFF2CF80E0089582E0089583E0089532
:1040500081E0089520911402309115022617370748
:1040600048F06115710539F42091E8002E7720930E
:10407000E80001C0B901FC0120E06115710591F172
:1040800080910D02882309F440C0853009F43FC0B7
:104090008091E80083FD3DC08091E80082FD2FC043
:1040A0008091E80080FFE9CF2091F3008091F20039
:1040B00090E0922B6115710559F08830910540F41C
:1040C00024912093F1003196615071090196F2CF4D
:1040D00021E0089709F020E08091E8008E77809336
:1040E000E800CBCF2111CCCF0AC080910D028823EC
:1040F00061F0853061F08091E80083FD0AC0809115
:10410000E80082FFF2CF80E0089582E0089583E026
:10411000089581E00895982F973068F59093E9000D
:10412000981739F07091EC002091ED005091F0005B
:1041300003C0242F762F50E021FD02C09F5FECCFFB
:104140003091EB003E7F3093EB003091ED003D7FEE
:104150003093ED003091EB0031603093EB007093C1
:10416000EC002093ED005093F0002091EE0027FD2D
:10417000E5CF80E008958F708093E90081E0089595
:1041800080910E0287FF11C08091E80082FD05C07A
:1041900080910D028111F8CF11C08091E8008B77DA
:1041A0000BC080910D02882349F08091E80080FFC8
:1041B000F8CF8091E8008E778093E80008952091F1
:1041C000E4003091E50095E64091EC00842F817089
:1041D00040FF23C08091E80080FD1DC080910D024A
:1041E000882399F0853099F08091EB0085FD11C00E
:1041F0004091E4005091E5002417350729F39150D0
:1042000011F09A01E1CF84E0089582E0089583E0FF
:10421000089581E0089580E008954091E80042FF0C
:10422000DDCF08950E9481210E948921E0EEF0E017
:10423000808181608083E8EDF0E080818F778083EA
:1042400019BCA7EDB0E08C918E7F8C9380818F7E1E
:10425000808310920C0208950F931F93CF93DF93E6
:104260000E9481210E948921C8EDD0E088818F774A
:10427000888388818068888388818F7D888319BC42
:1042800010920D021092090210920B0210920A0273
:1042900000EE10E0F80180818B7F8083888181604F
:1042A000888342E060E080E00E948B20E1EEF0E055
:1042B00080818E7F8083E2EEF0E080818160808368
:1042C000808188608083F80180818E7F80838881EF
:1042D00080618883DF91CF911F910F910895E8ED60
:1042E000F0E080818F7E8083E7EDF0E08081816067
:1042F000808384E082BF81E080930C020E942C21A5
:104300000895E8EDF0E080818E7F80831092E200D6
:1043100008951092DA001092E10008951F920F9212
:104320000FB60F9211242F933F934F935F936F9388
:104330007F938F939F93AF93BF93EF93FF9380915E
:10434000E10082FF0BC08091E20082FF07C08091F4
:10435000E1008B7F8093E1000E94F9238091DA00D5
:1043600080FF1FC08091D80080FF1BC08091DA00C1
:104370008E7F8093DA008091D90080FF0DC080E1AC
:1043800089BD82E189BD09B400FEFDCF81E0809343
:104390000D020E94541D05C019BC10920D020E940E
:1043A000621D8091E10080FF19C08091E20080FFD2
:1043B00015C08091E2008E7F8093E2008091E20040
:1043C00080618093E2008091D80080628093D80061
:1043D00019BC85E080930D020E94681D8091E10068
:1043E00084FF30C08091E20084FF2CC080E189BD51
:1043F00082E189BD09B400FEFDCF8091D8008F7D98
:104400008093D8008091E1008F7E8093E1008091BD
:10441000E2008F7E8093E2008091E20081608093D1
:10442000E20080910902882311F084E007C08091A6
:10443000E30087FD02C081E001C083E080930D02AC
:104440000E94711D8091E10083FF29C08091E200EC
:1044500083FF25C08091E100877F8093E10082E0A7
:1044600080930D02109209028091E1008E7F80936B
:10447000E1008091E2008E7F8093E2008091E20073
:1044800080618093E20042E060E080E00E948B2047
:104490008091F00088608093F0000E94651DFF917C
:1044A000EF91BF91AF919F918F917F916F915F91AC
:1044B0004F913F912F910F900FBE0F901F90189525
:1044C0001F920F920FB60F9211242F933F934F9389
:1044D0005F936F937F938F939F93AF93BF93CF938C
:1044E000DF93EF93FF93C091E900CF708091EC00D0
:1044F000D82FD17080FDD0E81092E9008091F000B3
:10450000877F8093F00078940E94A4221092E900A3
:104510008091F00088608093F000CD2BCF70C09325
:10452000E900FF91EF91DF91CF91BF91AF919F9102
:104530008F917F916F915F914F913F912F910F904C
:104540000FBE0F901F901895AAE2B0E0EAEAF2E2DF
:104550000C944324EEE0F2E08091F100819322E09C
:10456000E631F207C9F70E94961D8091E80083FFAB
:104570002EC180910E0290910F02492F50E04A30D7
:10458000510508F024C1FA01E256FF4F0C9427248C
:10459000803821F0823809F01AC108C080910A02DF
:1045A00090910B02992389F082600FC080911202D2
:1045B0008F70873008F00BC18093E9008091EB0089
:1045C00085FB882780F91092E9009091E800977F99
:1045D0009093E8008093F1001092F100D1C0282F51
:1045E0002D7F09F0F4C0882319F0823061F0EFC00C
:1045F00080911002813009F0EAC0933009F080E028
:1046000080930B022EC08091100281112AC08091EC
:1046100012028F702FEF280F263008F0D8C0809339
:10462000E9002091EB0020FF1CC0933021F4809121
:10463000EB00806214C09091EB0090619093EB00CE
:1046400021E030E0A90102C0440F551F8A95E2F72E
:104650004093EA001092EA008091EB00886080931A
:10466000EB001092E9008091E800877F8093E800DA
:104670000E94C020ACC08111AAC0109110021F7707
:104680008091E3008078812B8093E3008091E800A3
:10469000877F8093E8000E94C0208091E80080FF1F
:1046A000FCCF8091E30080688093E300111102C089
:1046B00082E001C083E080930D0289C0805882307F
:1046C00008F085C080911002909111028C3D53E05A
:1046D000950779F583E08A838AE289834FB7F89456
:1046E000DE01139620E03EE051E2E32FF0E050932C
:1046F0005700E49120FF03C0E295EF703F5FEF7039
:104700008E2F90E0EA3010F0C79601C0C0968D93CE
:104710009D932F5F243149F74FBF8091E800877F39
:104720008093E8006AE270E0CE0101960E94CC1FFF
:1047300016C06091120270911302AE014F5F5F4F7D
:104740000E94CB1EBC01892B09F441C09091E80066
:10475000977F9093E80089819A810E942A20809116
:10476000E8008B778093E80032C0803881F5809133
:10477000E800877F8093E800809109028093F10030
:104780008091E8008E7772CF811121C08091100254
:104790009091110299270297D4F48091E800877FC5
:1047A0008093E80080911002809309020E94C0204B
:1047B00080910902811106C08091E30087FD02C04B
:1047C00081E001C084E080930D020E947C1D8091F5
:1047D000E80083FF0AC08091E800877F8093E800AB
:1047E0008091EB0080628093EB00AA96E3E00C944A
:1047F0005F240895CF9380910D028823A1F0C0918A
:10480000E900CF709091EC00892F817090FD80E8D5
:10481000C82B1092E9008091E80083FD0E94A42239
:10482000CF70C093E900CF9108950E941221109299
:104830000D020895E8EDF0E08081806180838AE1D7
:104840008A95F1F700C08091D90081700895EE0F2C
:10485000FF1F0590F491E02D099469279627692799
:1048600078278727782708952F923F924F925F925B
:104870006F927F928F929F92AF92BF92CF92DF9270
:10488000EF92FF920F931F93CF93DF93CDB7DEB7D5
:10489000CA1BDB0B0FB6F894DEBF0FBECDBF099469
:1048A0002A88398848885F846E847D848C849B84C0
:1048B000AA84B984C884DF80EE80FD800C811B81CE
:1048C000AA81B981CE0FD11D0FB6F894DEBF0FBEFD
:1048D000CDBFED010895FB01DC0104C08D91019075
:1048E000801921F441505040C8F7881B990B089556
:1048F000FB01DC0102C001900D9241505040D8F7FD
:104900000895F999FECF92BD81BDF89A992780B597
:104910000895A8E1B0E042E050E00C94C524DC0129
:10492000A40FB51F4150504048F0CB01840F951F94
:104930002E910E94A02441505040D0F70895262F78
:10494000F999FECF92BD81BDF89A019700B4021685
:1049500039F01FBA20BD0FB6F894FA9AF99A0FBE33
:1049600008950396272F0E94A0240E949F24252F9C
:104970000E94A024242F0C94A0240196272F0E948B
:10498000A0240C949F24DC01CB01FC01F999FECFFB
:1049900006C0F2BDE1BDF89A319600B40D924150C7
:0A49A0005040B8F70895F894FFCFD7
:1049AA009C01010000000100000000000000040159
:1049BA0000000004050000000000000302010E1DB3
:1049CA00371D111D121D019190946697C6F4F5F6D4
:0449DA00F7C1010020
:00000001FF
